:100000000C9434000C9446000C9446000C9446006A
:100010000C9446000C9446000C9446000C94460048
:100020000C9446000C9446000C9446000C94460038
:100030000C9446000C9446000C9446000C94460028
:100040000C9448000C9446000C9446000C94460016
:100050000C9446000C9446000C9446000C94460008
:100060000C9446000C94460011241FBECFEFD8E03C
:10007000DEBFCDBF21E0A0E0B1E001C01D92A930FC
:10008000B207E1F70E94E6000C9432010C940000E4
:100090001F920F920FB60F9211242F933F938F93BD
:1000A0009F93AF93BF938091050190910601A0911A
:1000B0000701B09108013091040123E0230F2D378F
:1000C00058F50196A11DB11D2093040180930501EF
:1000D00090930601A0930701B0930801809100015D
:1000E00090910101A0910201B09103010196A11D1F
:1000F000B11D8093000190930101A0930201B09380
:100100000301BF91AF919F918F913F912F910F90DC
:100110000FBE0F901F90189526E8230F0296A11D81
:10012000B11DD2CF249A209A219A229A91E0A8E078
:10013000EEE3F1E0859107D0AA95E1F7F7CF2846E5
:100140005A6EB46E5A464AE02C9A1ED02C982AD089
:100150004A95D1F7913061F0933071F0953081F08C
:10016000973051F029D0289829982A989395089586
:10017000289A29982A98F6CF2898299A2A98F2CF6F
:10018000289829982A9AEECF552756BD582F57BD43
:100190005CE055BD55B351FFFDCF552755BD52E02D
:1001A00055BB08955FEF62ED72E07A95F1F76A95BD
:1001B000D9F75A95C1F708955FEF6FEF79E27A9515
:1001C000F1F76A95D9F75A95C1F70895789484B5EF
:1001D000826084BD84B5816084BD85B5826085BD43
:1001E00085B5816085BD80916E00816080936E00D1
:1001F00010928100809181008260809381008091C3
:100200008100816080938100809180008160809373
:1002100080008091B10084608093B1008091B00033
:1002200081608093B00080917A00846080937A002E
:1002300080917A00826080937A0080917A00816058
:1002400080937A0080917A00806880937A0010927F
:10025000C1000E949200C0E0D0E02097F1F30E941C
:080260000000FBCFF894FFCF72
:00000001FF
